:020000040001F9
:10600000004000201563010027630100296301009F
:106010000000000000000000000000000000000080
:106020000000000000000000000000002B630100E1
:1060300000000000000000002D6301002F6301003C
:1060400031630100316301002D91010031630100D2
:106050003163010000000000918E010031630100F6
:1060600031630100316301003163010031630100DC
:1060700031630100316301003163010031630100CC
:1060800031630100598F0100316301003163010068
:10609000099001003163010011900100316301009A
:1060A00031630100316301000000000000000000C6
:1060B00000000000000000000000000000000000E0
:1060C00000F002F800F0B5F80CA030C80838241829
:1060D0002D18A246671EAB4654465D46AC4201D120
:1060E00000F0A7F87E460F3E0FCCB646012633429D
:1060F00000D0FB1AA246AB4633431847A09C0000D1
:10610000C09C00000023002400250026103A01D383
:1061100078C1FBD8520700D330C100D50B6070475F
:1061200010B56E2902D101F005F910BD702902D118
:1061300000F03DFA10BD662902D109F023F810BD28
:10614000652902D109F01EF810BD672902D109F0B6
:1061500019F810BD612902D1C046C04610BD0368C0
:106160001B0A01D380231943692902D100F0AAF93F
:1061700010BD642902D100F0A5F910BD752902D126
:1061800000F0A0F910BD6F2902D101F0F1FB10BDA4
:10619000782902D100F0F8F910BDE92902D101F007
:1061A0008DFB10BDE42902D101F088FB10BDF5295B
:1061B00002D101F083FB10BDEF2902D101F0E4FB15
:1061C00010BDF82902D100F0EDF910BD0368DB091C
:1061D00001D380231943632902D101F0F1FA10BDE4
:1061E000732902D101F0F4FA10BDE32902D101F0C4
:1061F00074FF10BDF32902D101F077FF10BD00201C
:1062000010BD1FB50098019900F0CFFF01F0B2FE5C
:1062100004000020002108F0FFFE401C6060002008
:10622000002108F0E3FEE06002F0FEFB00F09CFEBF
:106230001FBD06F05BFE1146FFF7E3FF02F01BFEF9
:1062400007F090F9401E00BF00BF00BF00BF00BFB5
:1062500000BF00BF00BF00BF00BF00BF00BFF1D143
:1062600070470000144C144D0646064FF0B4034C22
:10627000024D024E014FF0B40748004700000000F5
:1062800000000000000000210000000000000000ED
:106290000000000000000000F9FFFFFF016881F32B
:1062A00008884068034AEFF305839A42DAD1024C2A
:1062B000A646004700000000FFFFFFFF401E00BF92
:1062C00000BF00BF00BF00BF00BF00BF00BF00BFD6
:1062D00000BF00BF00BFF1D17047000070B5054698
:1062E0000C46164602E00FCC0FC5103E102EFAD217
:1062F000082E02D303CC03C5083E042E07D301CCDD
:1063000001C5361F03E021782970641C6D1C761EC0
:10631000F9D270BD074802680F210A43026006489F
:10632000804706480047FEE7FEE7FEE7FEE7FEE798
:10633000FEE70000240500408D900100C1600100CF
:1063400070B5064600F00CFF056830460B30C408F7
:10635000E400B44201D8002070BD68682A460028D5
:1063600018D00168A14211D30B46214608318B4257
:1063700008D3436801194B6003681B1B0B60516015
:10638000046001E041685160001D70BD0246406834
:106390000028E6D12146284600F0F2FE0028DCD194
:1063A00070BD70B50446051F00F0DAFE0068002CD1
:1063B0001AD0446801E020466468002C01D0AC4249
:1063C000F9D301680A18AA4204D12A680546891837
:1063D000016000E0456028684119A14205D161686B
:1063E000696021684018286070BD6C6070BD4343CF
:1063F000514330B55C18010C130C0D4692B25D434D
:1064000080B251432C19054655430A0C09044D1915
:1064100062415843010C00044019514130BD10B590
:106420000B460146184601F0D7F910BD0FB40146DE
:1064300010B504AA039801F0CFF910BC08BC04B051
:10644000184700000FB41CB5084B06AA7B446946E8
:106450000090059801F091F904460020694601F08A
:106460009FF920461CBC08BC04B01847511300001B
:1064700070B50C460546012A05D02878800600D55F
:10648000EA69002302E0012305E05B1C934202D28B
:10649000E05C0028F9D1A869E618C01AA861286A4A
:1064A000C0182862284600F0B4FE04E06A6820782C
:1064B000A968641C9047B442F8D3284600F0BFFE98
:1064C00070BD0000F7B5002575291068009914A665
:1064D00011D000F0C5FE002802DA404211A608E003
:1064E000009909688A0701D50FA602E0490704D57B
:1064F0000EA6012501E000F0BCFE009F0024243719
:1065000004E001F01FFD30313955641C0028F8D13A
:106510002B4632462146009800F0B4FEFEBD000036
:10652000000000002D0000002B00000020000000F3
:10653000F8B50F460188090502D5224C7C4402E0DB
:10654000204C7C440E3405460021243508E0160713
:106550001209360FA65D6E541E0732431B09491CF3
:1065600016461E43F3D1224604780023240705D59E
:10657000702F06D0002901D00223113200F082FED4
:10658000F8BD01231032F9E770B504460D462146E7
:10659000106800F06EFE0023024629462046FFF7F1
:1065A000C7FF70BDD21DD308DB000CCBC0E730B4F1
:1065B000036820241268234303600823C36130BCAE
:1065C0000023B5E739940000F3B50446002081B0FC
:1065D00020622046E1688847002872D0252802D032
:1065E0006268A168ABE0594F00267F442046E1680D
:1065F00088472028054608DB312D06D27819203837
:106600000078002801D00643F0E7B00701D5042048
:1066100086430020E0610746A0612A2D0AD0284663
:1066200006F06CFC002827D0B8000019303D00901F
:10663000856119E00298BA00121902C891610290AE
:106640002046E1688847012F054617D1E0690028F8
:106650001FDA202086431CE000980A218069484305
:1066600000994019303888612046E168884705461E
:1066700006F044FC0028EFD1012F0AD02E2D08D1BE
:106680002046E16888470546202006437F1C022FEC
:10669000C3DBA069002803DA4042A0610120064361
:1066A000F00701D0102086436C2D0BD0682D09D047
:1066B0004C2D3CD06A2D38D0742D38D07A2D36D060
:1066C00016E040E0E1682F4620468847B84205467C
:1066D00009D16C2F29D001208002E16806432046B1
:1066E0008847054604E06C2F1DD0FF20013006438B
:1066F000002D28D028464138192803D80120C0028F
:1067000006432035204626602946029A1646FFF7A2
:1067100007FD002810D001280BD0F61DF008C0009E
:106720000830029055E74020E1E78020D5E70020BF
:10673000D3E7361D02964CE762682846A168904769
:10674000206A401C44E7206AFEBD0000B3930000AD
:106750000FB400B58DB010A909900B900020C04374
:1067600000910A9000200C90074878440690074852
:1067700078446A4607900F9909A801F025F90DB0F1
:1067800008BC04B0184700007F12000099120000F6
:10679000FFB51D460027FF4383B05C6800200190D1
:1067A0009E68A96904987F1C88470090296A8847D9
:1067B0000028F6D10098401C0CD0032040028443EE
:1067C000002E19DD600614D500982B2809D02D283D
:1067D0000FD103E00020C04307B0F0BD01208002CC
:1067E0000443A96904987F1C8847761E002E0090F8
:1067F00002DD0098302803D00598002825D035E028
:106800000120A96940020443761E04987F1C884732
:10681000002E009003DD782805D0582803D0059875
:10682000002810D022E00598002801D010281DD1A2
:106830000120A96940028443761E04987F1C884782
:106840000090102002E0082000E00A2005900DE0F2
:106850000121059A49020C430199761E51430818FB
:106860000190A96904987F1C88470090002E05DDDF
:106870000599009801F092F80028E9DAE96904988E
:106880008847A00502D40120C043A5E7E00722D134
:10689000600611D56005019800D5404229680A1D9F
:1068A0002A600968220501D5087014E0220701D585
:1068B000088010E008600EE02868011D296000686B
:1068C000210502D50199017005E02107019901D543
:1068D000018000E0016038467EE7000070B50446A4
:1068E000C068810713D0800601D5A56A04E0A169BC
:1068F000606840182169451A204601F065FA0022B7
:1069000006462946204601F08FF9304670BD00202A
:1069100070BD70B5002802D0FFF7E0FF70BD002504
:10692000074C6E1E08E02046FFF7D8FF002800D075
:106930003546206D44086400002CF4D1284670BD13
:10694000F82B0020F7B516460C46104600F07CF8F0
:106950002078611C61280AD0722802D0772839D1AA
:1069600002E00125002404E00225042401E02D4D6D
:1069700008240222032301270878491C2B2806D06B
:10698000622807D02039C87F742807D008E01D434B
:106990001443F1E7042005433C43EDE71020044392
:1069A0000098214606F0F0FA411C13D00021316115
:1069B00071600121F5604902F1617061200704D521
:1069C00030460222002101F02FF9306D3843306546
:1069D0003046FEBD0020FEBDF8B50D460646124C01
:1069E000206DC10704D0410804D044086400F7E7D3
:1069F000224610E05420FFF7A3FC070010D07908CE
:106A0000206D490001221143084354212065384676
:106A100000F05CF93A4629463046FFF793FFF8BD8F
:106A20000020F8BD02800000F82B002010B50029DE
:106A300002D0FF22013201E00122920201235B0217
:106A400001F06CF910BD0000FEB50446466900690E
:106A50000F4F0190E56800200090A80707D020465E
:106A600001F0B2F9304606F051FA002801DA384652
:106A7000FEBD280502D50198FFF793FC4C21204666
:106A800000F024F9206D4008400020650098FEBD0C
:106A9000FFFFFFFFF8B5074615460E461020FFF72B
:106AA0004FFC040009D06760A660E56000F060FB61
:106AB0000168216004600020F8BD0120F8BD034694
:106AC00010B50B439B070FD1042A0DD308C810C97A
:106AD000121FA342F8D018BA21BA884201D9012066
:106AE00010BD0020C04310BD002A03D0D30703D03F
:106AF000521C07E0002010BD03780C78401C491C94
:106B00001B1B07D103780C78401C491C1B1B01D1AF
:106B1000921EF1D1184610BD30B5441C03E0017837
:106B2000401C00290DD08107F9D10B4BDD0104C8B1
:106B3000D11A91432940FAD0001B0A0603D0C01E87
:106B400030BD001B30BD0A0401D0801E30BD0902DB
:106B5000FCD0401E30BD0000010101010346F0B52C
:106B60000B439B072DD1244DEF01042A29D308C8DC
:106B700010C95E1B9E43121F3E4017D0D8B2E1B22F
:106B8000401A3106014310D198B2A1B2401A310423
:106B900001430AD118022102000A090A401A3102EF
:106BA000014302D1180E210E401AF0BDA342DCD0E1
:106BB00018BA21BA884201D90120F0BD0020C04393
:106BC000F0BD002A01D10020F0BD03780C78401CF4
:106BD000491C002B0DD0A3420BD1521E09D00378C3
:106BE0000C78401C491C002B03D0A34201D1521E3B
:106BF000EBD1181BF0BD000001010101F8B5042A1A
:106C00002CD3830712D00B78491C0370401C521EF2
:106C100083070BD00B78491C0370401C521E83075E
:106C200004D00B78491C0370401C521E8B079B0F2D
:106C300005D0C91ADF002023DE1B08C90AE0FFF7D0
:106C40004DFBF8BD1D4608C9FD401C46B4402C4311
:106C500010C0121F042AF5D2F308C91A521EF0D42C
:106C60000B78491C0370401C521EEAD40B78491C57
:106C70000370401C012AE4D409780170F8BDD2B237
:106C800010B513029A1813049A1800F00EF810BDEC
:106C900001E004C0091F0429FBD28B0701D5028043
:106CA000801CC90700D00270704700290BD0C307B1
:106CB00002D00270401C491E022904D3830702D56A
:106CC0000280801C891EE3E70022EEE70022DFE756
:106CD00082078B079A4237D170B5920F0AD00324EE
:106CE00002780B78401C491C002A2BD09A4229D1EB
:106CF0002042F5D11D4EF40104C808C9951B9543E7
:106D0000254010D19A4207D104C808C9951B954364
:106D1000254008D19A42EFD012BA1BBA01209A42FC
:106D200000D2404270BD12BA1BBA2DBA182410000E
:106D3000E0401900E140401A05D12E00E64002D1A2
:106D4000083CF4D1D01A70BD02780B78401C491C65
:106D5000002A09D09A4207D102780B78401C491CBE
:106D6000002A01D09A42EFD0D01A704701010101E8
:106D700010B5024901F098F810BD0000C02B0020AA
:106D8000002203098B4273D3030A8B4258D3030BAF
:106D90008B423CD3030C8B4221D312E003460B43BE
:106DA0007FD4002243088B4274D303098B425FD304
:106DB000030A8B4244D3030B8B4228D3030C8B4230
:106DC0000DD3FF22090212BA030C8B4202D3121216
:106DD000090265D0030B8B4219D300E0090AC30BEB
:106DE0008B4201D3CB03C01A5241830B8B4201D398
:106DF0008B03C01A5241430B8B4201D34B03C01A81
:106E00005241030B8B4201D30B03C01A5241C30AF8
:106E10008B4201D3CB02C01A5241830A8B4201D369
:106E20008B02C01A5241430A8B4201D34B02C01A53
:106E30005241030A8B4201D30B02C01A5241CDD2F8
:106E4000C3098B4201D3CB01C01A524183098B4243
:106E500001D38B01C01A524143098B4201D34B012C
:106E6000C01A524103098B4201D30B01C01A52418F
:106E7000C3088B4201D3CB00C01A524183088B4216
:106E800001D38B00C01A524143088B4201D34B00FF
:106E9000C01A5241411A00D2014652411046704771
:106EA0005DE0CA0F00D04942031000D34042534076
:106EB00000229C4603098B422DD3030A8B4212D336
:106EC000FC22890112BA030A8B420CD38901921168
:106ED0008B4208D3890192118B4204D389013AD0A5
:106EE000921100E08909C3098B4201D3CB01C01A7A
:106EF000524183098B4201D38B01C01A524143098D
:106F00008B4201D34B01C01A524103098B4201D37A
:106F10000B01C01A5241C3088B4201D3CB00C01AE7
:106F2000524183088B4201D38B00C01A5241D9D2FF
:106F300043088B4201D34B00C01A5241411A00D280
:106F40000146634652415B10104601D34042002B7C
:106F500000D54942704763465B1000D3404201B5FB
:106F60000020C046C04602BD70B5064C7C44064DAC
:106F70007D4403E0206800198047241DAC42F9D10C
:106F800070BD0000788F00007C8F00000246C80FA3
:106F9000C00781434B0030B54B405B009B0D20D0B8
:106FA0001923DB06C91801231B05994220DB0324A2
:106FB000A40704251346AB400BD3002B04D1EB06EA
:106FC00013409B00E34204D40124640700231219F8
:106FD0005941FF231B0599420BD2C9000143500FB1
:106FE00009E0CB0204D501430803024305D005485C
:106FF00030BDFF21C905084330BD084607210905FA
:10700000884330BD0000C07F1F22030C02D10F2235
:10701000000402D0030E03D004E0002001467047B4
:107020000002083A030F01D10001121F830F01D1A2
:107030008000921E002801DB4000521E12055118EC
:107040004205C012411810467047C10FC90700D051
:107050004042012292071143D6E701218907D3E775
:1070600070B505464800440D124B0020002C0AD094
:10707000634008D09A4206DA6642B24203DD120546
:107080004019514170BD002C08D0002B09D0C90F08
:10709000C907002AF6DB084A114370BDC90FC907AA
:1070A00070BD28460A03104302D00020034970BD7A
:1070B000284670BDFF0700000000F07F0000F87F49
:1070C0000121C9050123411842001B06D3185B0E9C
:1070D0000AD0C1100722D206891840075242D14275
:1070E00001D5520089187047090208D50146002AC7
:1070F00003D0C10FC90700207047104670474202F5
:1071000002D0002002497047072109050143F4E736
:107110000000F87F10B501469E240002CA15A3079F
:10712000002A02D01843002A04DBA21A002A0CDD30
:10713000D04010BD1206120E01D140004008A21A24
:1071400003D4D04040420028F3DDFF22480012065D
:10715000904201D9002010BDC817C043584010BD4F
:1071600000487047EC2B002000487047F02B0020AF
:1071700000487047F42B00207047704770477047F5
:1071800038B504460A460020694601F03BFD002858
:1071900005D002462046009900F0F0FE012038BDDF
:1071A00010B5012001F004FD10BDF8B501F01EFD81
:1071B000054600200C461020C0460646A819A042ED
:1071C0000DD932466946002001F01CFD070001D1AF
:1071D00001F0EEFC0098A04200D00546C419FFF76C
:1071E000BFFFF61D07460560F008C0004619284697
:1071F00000F008F8B44204D031463868A21B00F011
:10720000BDFEF8BD00210160416080607047102024
:10721000704770B5044685690068C10601D53026FF
:1072200000E02026C00707D070BD62683046A16824
:107230009047206A401C20626D1EF6D570BD70B567
:10724000044685690078C00707D170BD6268A168EF
:1072500020209047206A401C20626D1EF6D570BD2C
:1072600009684A0501D540B27047C905FCD500B28E
:10727000704709684A0501D5C0B27047C905FCD5F9
:1072800080B27047FFB504460D4681B024300090AF
:107290002168880604D51022E0699143216000E04E
:1072A0000120A84201DD471B00E000270498A169E6
:1072B0007A191018081AA0612078C00602D4204656
:1072C000FFF7A7FF002608E003986268A168805DC9
:1072D0009047206A401C761C206204988642F3DBAB
:1072E0002078C0060AD52046FFF793FF06E06268C3
:1072F000A16830209047206A401C206238467F1EDB
:107300000028F4DC07E000986268A168405D9047BF
:10731000206A401C206228466D1E0028F3DC2046AF
:10732000FFF78DFF2078000602D5022005B0F0BDE2
:107330000120FBE711680268006A530501D5087057
:1073400009E0D30501D5088005E0130602D5C21770
:1073500005C100E008600120704700007047FFB5DC
:107360000C461E468FB003CA089009914F007D0D50
:1073700000D16D1E002108460020C0460321099A55
:1073800089050840002A03DA820080184008084076
:10739000800D01280A9002DD0020C0430A90089861
:1073A00007430DD0EF48F0492818484307141898B0
:1073B00000281DD07542291E1DDD0A9842421BE09F
:1073C0001898012802D00020302104E00020F24368
:1073D00005E02154401CB042FBDB30460022189BE4
:1073E000002121540F998B600A60486013B0F0BDF2
:1073F000BD1B6D1CDFE70A9A002900DA69420BA861
:1074000001F038F80BAB07CB03AB07C30899099819
:1074100001F094F86B4607C30146D4480918002DC3
:1074200000910ADDD14903980A9A4942401803A9FC
:107430000390684601F0A7FA07E003990A9A081832
:1074400003A90390684601F074FA6B4607C3000471
:10745000000C03D00020C043410800E01046189AF9
:10746000002A03D00022009215461EE0751E05D4A6
:1074700000F09EFD303262556D1EF9D501220843A1
:10748000079602D000227F1C04E02078302801D12A
:1074900000227F1E002A069789D01EE0112D07DAF0
:1074A00000F086FD303262556D1C02460A43F5D16C
:1074B000084303D00098002819D00EE00021681E70
:1074C00005E0235C625C63542254401E491C8142E7
:1074D000F7DBA81B401E07950690079A1899002015
:1074E000A0540F98079B069A81600CC07EE7112676
:1074F000002018905BE7D21DF0B50D460446D10878
:1075000093B0C90003C90C900D9105F01BFC024615
:107510000D98C00F01D02D2007E02068810701D50C
:107520002B2002E04007C00F4001032A0F9001D03A
:10753000072A05DB03462946204600F07FFD0EE1C1
:107540002078800601D5E76900E006272846652DEA
:1075500004D0662814D0672D69D12DE00020112FAA
:10756000009001DB112300E07B1C0CAA03A910A8EA
:10757000FFF7F5FE1199002610987D1C0E9142E050
:1075800001203B460CAAC0070B900120009003A9E4
:1075900010A8FFF7E4FE119D12981099002600280C
:1075A0000E9501D1781C0D18781B02D446427D1C23
:1075B000761EE81B00903AE0012F00DA0127002038
:1075C000112F009001DD112300E03B460CAA03A916
:1075D00010A8FFF7C4FE11993D46109800260E91A1
:1075E000217809070BD40E99A94200DA0D4603A9A8
:1075F000012D04DD4A19203AD27F302A06D0B84244
:1076000001DA011D04DA012100910FE06D1EEFE7A0
:10761000002802DC86192D1A03E0411CA94200DD76
:107620000D46801B401C00900120C0070B90207865
:10763000000705D40098A84202DB0020C043009058
:1076400069460020C8720B98012102AF0337C907B1
:10765000884225D0022010902B2011900B980028F2
:107660000BDA40420B902D20119006E00B9800F0B1
:1076700069FC30317F1E0B9039701099481E00292B
:107680001090F3DC0B980028F0D111987F1E387011
:107690002088000501D5452000E065207F1E387058
:1076A00001A8C01BC01D0B900F98002800D001201E
:1076B00041190098C01709180B980818A169081AF1
:1076C000401EA0612078C00602D42046FFF7A1FD2D
:1076D0000F98002805D06268A1689047206A401C76
:1076E00020622078C00625D52046FFF792FD21E0D4
:1076F000002E07DB0E98B04204DD03A86268805DAF
:10770000A16802E06268A16830209047206A761C78
:10771000401C20620098401E002800900AD100F012
:1077200029FCC06862680168405CA1689047206AD3
:10773000401C206228466D1E0028D9DC07E06268E4
:107740003878A1687F1C9047206A401C20620B9902
:10775000481E00290B90F2DC2046FFF770FD032045
:1077600044E6000001FCFFFF104D0000E1DFFFFFD9
:1077700001694A1C02610878704700B58FB0029118
:107780000021059105490193794403911146049024
:107790006846FEF719FF0FB000BD0000E5FFFFFFD0
:1077A0000A681070521C0A60704710B54369002BBC
:1077B00002D0C046C04601E0FEF75AFE012010BDCF
:1077C0001278014624310A7000224A700122ECE747
:1077D00011680022D243E8E7084B70B50D467B44A0
:1077E000FFF7CBFF0446284600F022F9002802D01C
:1077F0000020C04370BD204670BD0000B76300008C
:10780000F7B50446154686B02B487844002703C8D0
:107810003E460090019111E007986A467100415A76
:1078200002A801F09FF9411C07D02178890603D5F1
:10783000E269391891420ED83F18761C20788006EC
:1078400002D5E069B84206DDAE42E5DB079871007B
:10785000405A0028E0D1A069C01BA0612046FFF774
:10786000D8FC154878445A3803C80090002001918C
:1078700016E041006A460798415A02A801F072F9E1
:107880000590401C0AD0002505E0626802A8A168A6
:10789000405D90476D1C05988542F6D30498401CC6
:1078A000B0420490E5DB206AC01920622046FFF751
:1078B000C6FC09B0F0BD0000A6810000F7B5D21DDE
:1078C0000025D20815A6D200F52905CA11D0002A34
:1078D00005DA00214042914111A60A4608E00099CC
:1078E00009688B0701D50FA602E0490701D50EA64E
:1078F00001251146009F0024243704E000F058FBC6
:1079000030323A55641C02460A43F7D12B463246C0
:1079100021460098FFF7B6FCFEBD00000000000005
:107920002D0000002B0000002000000070B5044670
:107930000021243408E05507D2086D0F3035655416
:107940005D072A43DB08491C15461D43F3D1046833
:10795000002310A2250708D520252C400C4304D075
:10796000C46901230CA2641EC461FFF78BFC70BDC7
:1079700010B5044621461068FFF77BFC0023024641
:107980002046FFF7D3FF10BDD21DD108C9000CC996
:10799000CCE7000000000000300000003A2800D2D0
:1079A0003038202302469A43412A01D31046373803
:1079B000884201D30020C04370470000026851187C
:1079C000137801601846704710B5D16005497944B5
:1079D000516105497944116200211161114600F09D
:1079E00089FB10BDEBFFFFFF530600004268002A31
:1079F00008D001680B78491C002B03D0521E06C02A
:107A0000184670470121C160881E70474268002AED
:107A10000BD0C3680168002B07D183688B4204D068
:107A2000491E521C06C0002070470020C04370470A
:107A3000C068802108407047F8B505460C46C86804
:107A40000521C9048843012189050843E0608006B7
:107A500002D5204600F0DEF97149E06801400229B4
:107A600003D0204600F080F9BCE005210122490343
:107A70000140D20391420FD1C00306D56168E06A8C
:107A8000884200D80846606006E02069E0626060D5
:107A9000606905F051FAA061A1680022EEB20029E8
:107AA0000EDAE06883050BD4C943A1600921226086
:107AB00049030843E0606068411C61600670ACE007
:107AC000E068012149030843E0600020206020694C
:107AD000002831D1606905F043FA01252746243793
:107AE000ED02002816D0A0898005800F08D0E0693B
:107AF000FEF726FC0028206102D0E068284318E049
:107B000001202761E061E068032109028843012127
:107B100089020DE0E069FEF713FC00282061EFD038
:107B2000E0682843E0608105890F03D1FF2101311E
:107B30000843E06020696060E2683A4F2569D0053B
:107B40001FD56168E06A884200D80846411B05D00D
:107B50002246284600F012F9002843D1E0680102CD
:107B600004D5E56200206560A06053E0691CE16215
:107B70006160E169491E3843A160E06030462E70C3
:107B8000F8BD100201D53A4009E06068411C61600F
:107B90000670E06838430A2EE06006D00022E16AF1
:107BA0006068814203D90B4602E00122F7E70346F1
:107BB000A7895B1B7F0504D4E7699F4201DD002A8A
:107BC0001ED0814200D801460F1A0020E562656090
:107BD000002BA06009DD22461946284600F0CEF8A9
:107BE000002802D00020C043F8BD002F08D0A069B3
:107BF000E5626560C01BA061E06810210843E06099
:107C0000E068000209D56168A069E562491B401877
:107C10006560A0610120C043F8BD3046F8BD00009A
:107C20008210000000000100F8B5044616460D461B
:107C30004769007B800730D0384605F091F900286D
:107C40002BD132461026002A25D0012A02D0022A42
:107C500023D104E0204600F0C5FE45191BE038465C
:107C600005F06AF9E16831430028E16004DA204652
:107C700000F07AF80120F8BDC9030BD56268E16A0B
:107C8000914200D81146A26989182269891A814255
:107C900000DD08462D18002D01DA0220F8BDE16A4A
:107CA0006068E268814206D29103E06203D5012157
:107CB00049048A433243A669AE4211DCE16A81423B
:107CC00001D90B4600E003469F192369FF1AAF4212
:107CD00006DD814201D90F4600E007469F4206D1EA
:107CE000202002430020A060A56220600DE0AD1BB3
:107CF000E669AE1B8142A66000D90846C01A281A60
:107D00002060581960602020824303480240002010
:107D1000E26040342072F8BDBFCFD7FF70B5C468B1
:107D2000A50713D0650211D4D51FF93D0AD0FF3D38
:107D30006D1E07D0FF3DFF3D022D07D101462431C6
:107D4000012305E0074E5D1EB54201D3012070BD41
:107D50000161C36141600F2109028C431443C46077
:107D6000002070BDFFFFFF00C16880221143920315
:107D70009143C1600021816001607047F7B51446EE
:107D80000E463348D5685769054209D03846A1697F
:107D900005F09AF9002811DB2D48C0430540E56045
:107DA0002B4632463846009905F0A2F94200A169F7
:107DB0005208B21A89180028A16104D02046FFF7A2
:107DC000D3FF0020C043FEBD70B504460569C06AFC
:107DD0006168884200D80846E1680522D2049143D0
:107DE000E160C90314D5A84209D02246411B2846A8
:107DF000FFF7C4FF002802D00020C04370BDE56239
:107E000000206560A060E068012109048843E0600B
:107E1000002070BD10B50446C06820218843E06092
:107E2000A16AA06988420ED02046FFF7CDFFE06826
:107E300003210903884310210843E060A06AA06180
:107E40002069E06260600349E0680840E06010BDBE
:107E500010000200BFBFFFFFF8B50646FFF788F924
:107E60000090054615E0002E02D0E068B0420FD128
:107E7000206828600098A1680768606888472046E5
:107E8000FEF78FFA00980068B84202D00098E8E741
:107E900025462C68002CE6D1F8BD10B500F08EFE0A
:107EA00000F080FE10BD000070B50C460068002593
:107EB000411C2CD03C21FEF763FF21603C21FEF7E2
:107EC0005FFF61601821FEF75BFFA1601A49461849
:107ED00007213046FEF754FFA16130461749FEF7EF
:107EE0004FFF86000846FF216F31884205D3491EA7
:107EF000401EFEF745FF86190846114A6661B10724
:107F0000E0617A440CD03B280AD3401C08E02C21C5
:107F10002046FEF7DBFE0120E0600AE0401A6D1CFF
:107F2000515D8142FAD9401C2561E0600020C043C8
:107F30002062204670BD0000E0630000B50500002F
:107F40004A7B000001468008081A02091018020A3C
:107F50001018020C1018C008820012185200891A5A
:107F600001E0401C0A390A29FBD2704710B500F025
:107F700065FE10BD00487047F42C002010B5034684
:107F8000406801E003464068002801D08842F9D3E8
:107F90001868C3188B4206D0CB1CD808C000001D3F
:107FA000411A521A0146081D0A60FEF7FAF910BD7F
:107FB0000B4670B5024689078008084319469D089C
:107FC000141AA94125090807054308092C19484135
:107FD000250A01060D43010A2C194141200C0D040C
:107FE00028430D0C00194D41002140194D41C00896
:107FF00069070843E908840F8D002543840024188D
:108000004D4124196D41121BAB4107E00925ED4399
:108010002C11521963410024401C61411C460A2561
:108020000026551BB441F1D270BD10B5044600F0D6
:1080300043FE0068005DC007C00F10BDF8B51F46C5
:10804000044601230068DB02032601461840072A84
:1080500005DB002801D017A506E017A504E00028DD
:1080600001D016A500E016A5102081432160A0696B
:10807000C01E002FA06101D0401EA0612046FFF766
:10808000C8F8002F09D038466268A1689047206A76
:10809000401C2062C01C206206E0206AFAE7626889
:1080A0002878A1686D1C9047761EF8D22046FFF70D
:1080B000C6F8F8BD4E414E006E616E00494E460056
:1080C000696E660010B54369002B02D0C046C046F9
:1080D00001E0FFF795FB012010BD12880146243115
:1080E00082840022C2840122ECE711680022D2437C
:1080F000E8E70000F3B50C468FB000200C9001209B
:1081000000260E9008460C30039062690398012106
:108110009047051E2ED0252D2DD0216A8847002896
:1081200018D06269039801219047216A8847002886
:10813000F7D16269411E0398904700E0761CA1695F
:108140000F988847216A88470028F7D1E1690F987E
:108150008847DAE7A1690F988847A842074601D106
:10816000761CD2E7E1690F9888477F1C02D10C98F2
:10817000002877D06BE16269039800273D463946B5
:1081800090472A280CD16269039801219047012564
:1081900006E00A214F433F18303FEBD4102005433F
:1081A0006269039801219047014630390A2903D2B8
:1081B000AC498F42DEDCECE7E90600D4AA4F6C281C
:1081C0000AD04C2810D0682824D06A282ED07428D1
:1081D0000CD07A280AD00DE06269039801219047FB
:1081E0006C2823D004211CE02020054362690398F9
:1081F00001219047A760652865604FD026DC58288C
:1082000039D01ADC452849D012DC252834D0412841
:10821000B0D143E06269039801219047682802D0F9
:1082200008210D43E6E70120C002DEE70220DCE77B
:10823000462833D047289DD130E05B2870D0612894
:108240002CD063286CD0642894D161E06F284FD083
:1082500009DC662822D0672820D0692826D06E281D
:1082600017D12EE0EFE070284DD073286FD075281D
:108270004ED078280DD154E0A1690F988847252861
:10828000054600D16CE7E1690F9888476D1C00D165
:108290006DE7DCE00A224CE00A2252E0012023468E
:1082A0006A460F99C043C046C046C5E040212846F3
:1082B000234608436060A80701D5002239E0002268
:1082C0003FE0E80700D020E72068011D216000683A
:1082D000290501D5067018E7290701D5068014E79E
:1082E000A90703D5F117066041600EE706600CE7A9
:1082F00040212846234608436060A80701D508228C
:1083000017E008221DE0594928460840606016E041
:1083100040212846234608436060A807BCD5B9E73A
:1083200015E04021284608436060A80707D523468A
:10833000102201200F99C043C046C0467CE01022A5
:10834000234601200F99C043FEF722FA74E0002172
:1083500063280B460191009102910D9102D05B2898
:1083600007D03BE0E80601D40120A0600120009086
:1083700034E0E06801210D906269039890475E281F
:1083800007D101200190E06801210D9062690398F6
:1083900090472169002906D10B4604AA8F00491C89
:1083A0000829D351FADB002851D02169002926D0B1
:1083B0000298401C029062690398012190475D2851
:1083C000F1D10198002808D0002004AB8100401CA6
:1083D0005A58D24308285A50F8DB04AB20690028C9
:1083E00020791CD04007029A00980D9B00922246EB
:1083F00002901F480F991DD5C046C0461CE0C1170A
:10840000C90E09184A114909930004AA9A1849018A
:10841000411A13680120884003431360CBE74007EB
:10842000224613480F9902D5C046C04604E0C04614
:10843000C04601E0C046C04600280ADA401C06D10A
:108440000E98002803D00020C04311B0F0BD0C9856
:10845000FBE7E90702D10C99491C0C913618002062
:108460000E9052E6CCCCCC0CFFFFFF7FF1F7FFFF64
:10847000FEFFFFFFF7B516468AB02F4878446C46DA
:1084800003467C33C06F5A689B680DC42A48784401
:10849000763003AC0DC80DC43720C0010818372151
:1084A0001B30FEF77BFC05460C46803D1B3C02D58D
:1084B0006442012000E00020002709900FE0E0075F
:1084C0000BD00C201C497843794432464C39411872
:1084D000684600F02EFA6B4607C364107F1C002C20
:1084E000EDD1154F7F442C3F15E0E80711D0200156
:1084F000C0190EC80691089307920068F04201D196
:1085000098190890324606A903A800F012FA03ABA6
:1085100007C36D10641C002DE7D1324669460998E7
:10852000002803A802D000F02EFA01E000F001FAC2
:108530000A9B07C30DB0F0BD3C7500000346400028
:108540000A4610B5400D0BD00121C9070F24A40223
:1085500000191C0364082143540D2143D20207E093
:1085600000210120F2E7D40F490021435200401EB0
:108570000029F8DADB0FDB07184310BDFFB50D4605
:10858000144685B04868516804F0B2FB0091019030
:10859000A868A16804F0ACFB02910390A868616828
:1085A00004F0A6FB029A12188242029201D2012024
:1085B00000E00020019A0B18D2180028019202D086
:1085C0008A4202D903E08A4201D2012000E0002061
:1085D0000099081800906868A16804F089FB029A65
:1085E00012188242029201D2012000E00020019A7A
:1085F0000B18D2180028019202D08A4202D903E057
:108600008A4201D2012000E0002000990818009061
:108610002868216840004900400849084018EE4990
:10862000471814E001994000C90F084300900198D1
:1086300002994000C90F0843019002980399400035
:10864000C90F08430290039840007F1E03900098D2
:108650000028E7DA0898002801D0E04E00E0002664
:10866000B74228DAF71BF806C00E15D0029B20216E
:10867000091A039A8B401A430392029A019BC24043
:108680008B401A430292019A009BC2408B40009992
:108690001A430192C14000917A110BD06B4603201E
:1086A000811A01D5002101E0890059588700401E38
:1086B000D951F5D5374603980299002800D00120FA
:1086C000014308980291002808460CD0002800D0E9
:1086D00001200199019A490508430121D20AC902E2
:1086E000D202019200E001210E9B0122D207012B50
:1086F00002D0002B03D013E0002807D116E09042EF
:1087000004D890420CD1019B0B4209D0019B59180F
:10871000019105D10099491C009101D17F1C009263
:10872000002803D0102108460020C0462868216890
:10873000019B009A4840C10F0598C90739430EC0F4
:1087400009B0F0BDFFB587B0099A08980899536839
:1087500092684068896896460022039317469446BB
:10876000089A12685300099A5B081268520052086E
:108770009A1A9B4BD4180A9A002A01D0352200E09D
:10878000402206920022012315460492DB0705933E
:1087900024E0002D05D175460346039E4D1BB341D1
:1087A00009D375466646039B491B049D9841059B6A
:1087B0007519AC465F4163463B4308D0059B049E58
:1087C000DD0776082E435B080496059301E0521EF0
:1087D000641EC50FED0749184041521C069B9A4282
:1087E000D7DB002D04D17546039A6B1A824101D262
:1087F00003200CE0039A0B466B404240134303D026
:10880000014303D0012002E0022000E00020614685
:1088100001910021009702910A99002905D0614633
:10882000400201436D4B019102E08007002302905A
:108830009C423ADA1A1BD006C00E15D0029D2021A8
:10884000019C091AC5408C402543029C8C4000D0F5
:1088500001242543019C02953D46C4408D40394684
:108860002C43C1400194009154111DD06D4602214A
:10887000002202290CD10320001B07E0002804DBA2
:108880008600AE59002E00D00122401C0328F5DBE3
:10889000081B02D588002A5004E0800028581043A5
:1088A0008A00A850491EE3D51C460A980028029861
:1088B0000CD0002800D001200199019A49050843F5
:1088C0000121D20AC902D202019200E00121109BCB
:1088D0000122D207012B02D0002B03D013E0002885
:1088E00007D116E0904204D890420CD1019B0B4274
:1088F00009D0019B5918019105D10099491C00919B
:1089000001D1641C0092002803D0102108460020E9
:10891000C04608980999019A00680968484000997A
:10892000C30F0798DB0723430360826041600BB0ED
:10893000F0BD1FB5002300920A46014601A8FFF7CB
:108940001DFE01AB07CB04B010BD1FB50123009283
:108950000A46014601A8FFF711FE01AB0F2407CB21
:10896000A402C30F4000DB074008001B002900DB06
:108970000020490000054908CC0A20434905184356
:10898000D20A1143DFE71FB5002300920A460146D1
:1089900001A8FFF7D7FE01AB07CBD4E71FB5012332
:1089A00000920A46014601A8FFF7CCFE01AB0F2456
:1089B00007CBA402C30F4000DB074008001B0029BF
:1089C00000DB0020490000054908CC0A2043490586
:1089D0001843D20A1143B6E702C0FFFF013C000072
:1089E000FF3F000010B50146C268900703D0900613
:1089F00007D5886A0AE000F06BF901210160881E42
:108A000010BD8B694868C0180B69C01A40310B7AD9
:108A1000002B02D0497A401A10BD1103FCD5002862
:108A2000FADD401E10BD000010B543485421FEF78A
:108A30004DF942485421FEF749F941485421FEF7C7
:108A400045F940483C493D4B404A01603E4803607F
:108A50003B4810605A1C0A65411C196501210165DB
:108A60003C48354A3AA17844FDF76CFF002804D110
:108A7000384878440C3800F053F938482F4A36A16A
:108A80007844FDF75FFF002804D1344878440C385F
:108A900000F046F932482A4A2FA17844FDF752FFE8
:108AA000002804D12E4878440C3800F039F94023CE
:108AB0002148DC0000212246FFF730F9002804D0CD
:108AC000244878445C3800F02BF91C4822464023A7
:108AD0000021FFF723F9002804D0204878445C38AF
:108AE00000F01EF91648224610230021FFF716F960
:108AF000002804D01A4878445C3800F011F910BD01
:108B00000F4870B5006D44080B486400FDF79CFFEA
:108B10000A48FDF799FF0A48FDF796FF09E0206D26
:108B2000450820466D00FDF78FFF2046FDF739FC14
:108B30002C46002CF3D170BDF82B00204C2C0020CB
:108B4000A02C00206021002064210020682100204A
:108B5000720000009A6D000077000000876D000031
:108B6000756D000070B516460C46054600F0A4F879
:108B70000368FF200230C05C012807D0FF2C0ED80C
:108B8000185D00280BD001202C7070BDFF333246D9
:108B9000214608331868C3182846984770BD00203E
:108BA000C04370BD10B5002801D000F07FF810BDA3
:108BB00010B500F0BBF8FFF7F5FF10BD10B50021B0
:108BC00002A000F093F8012010BD00005349475067
:108BD00056464E3A205075726520766972747561FA
:108BE0006C20666E2063616C6C65640001226946CE
:108BF000114B120382188A421A6001D8114670473D
:108C00001960704770B50C4C6D4601263603236819
:108C1000AD1B9A18AA420ED8AD1A9019EE0F75190D
:108C20006D10AA18904200D91046C01D0B60C208F2
:108C3000D200D01A226070BD6C21002010B500F067
:108C40000EF80169002903D000220261884701E083
:108C50008068804700F040F810B500F03DF870B52E
:108C600000F032F804680546002C15D12020FDF7ED
:108C700067FB040012D0002009492C6003C4094995
:108C800021602071A060E06007492061083C002954
:108C900001D000F073F8E061204670BD00F01CF8D0
:108CA00000000000598C010000000000014918205C
:108CB000ABBEFEE72600020010B5FFF75BF9001D12
:108CC00010BD00BF5563000000487047082D00200C
:108CD000004870470C2D002010B5002000F076F8F9
:108CE000C046C0460120FFF7E1FF10BD70B5054644
:108CF0000C460A2000E06D1C00F061F8002D06D043
:108D000028780028F7D102E0641C00F058F8002C05
:108D100002D020780028F7D10A2000F050F870BD6A
:108D200010B500F059F8FFF73DFF10BD10B5012850
:108D300005D0002103A0FFF7D9FF012010BD09A134
:108D4000F8E7000053494752544D454D3A204F75BE
:108D500074206F662068656170206D656D6F727933
:108D6000000000003A2048656170206D656D6F72EB
:108D70007920636F727275707465640010B5882015
:108D8000FDF7DEFA002801D00021017010BD802916
:108D900004D8002802D00178002901D000207047B3
:108DA0000121017008307047002803D002460832C4
:108DB000914201D00020704700210170704708B532
:108DC000694608700320ABBE08BD704710B500F0BF
:108DD0001DF8FFF7E7FE10BD10B5014602A0FFF732
:108DE00085FF012010BD00005349475254524544AD
:108DF0003A2052656469726563743A2063616E2734
:108E000074206F70656E3A200000000010B50021DC
:108E100002A0FFF76BFF012010BD0000534947413E
:108E20004252543A2041626E6F726D616C207465DB
:108E3000726D696E6174696F6E00000030B58C18D8
:108E40000278401C13071B0F01D10378401C120944
:108E500006D10278401C03E00578401C0D70491CC7
:108E60005B1EF9D101E00B70491C521EFBD1A142DF
:108E7000E6D3002030BD10B505F093FB05F090FB64
:108E800005F0AAF910BD10B5002103F044F910BD9A
:108E9000F8B52A48006900902948C16B00294CD0D8
:108EA00028494968002948DA0021C163264E274D28
:108EB0000C46A700F05900283BD02549095D002940
:108EC00020D00099E140C9070ED079190968090C32
:108ED000C943890716D01F4A1168E140C90711D05C
:108EE0009268012190470DE079190968090CC9437E
:108EF000890707D1174A5168E140C90702D0926833
:108F000002219047781901688903890F11D00268FE
:108F1000032109048A430260009AE240D20703D089
:108F200002680A43026004E001680122520411430E
:108F30000160641CE4B21F2CBBD3F8BD00050050D7
:108F400040610040006300400C2A002000070050F0
:108F5000882A00203C210020F8B525480021016026
:108F600041608160C160234A11605068224E002830
:108F700008D0B36AF06A01252D065B190024604110
:108F8000B362F062002050603469601C2FD01B482F
:108F9000002740687169401A05022D0A24204443C5
:108FA000B06822185068A8420ED8B3692D1AC719A4
:108FB000146A002B03D0D1699069984702E0916947
:108FC000D0698847601CE9D1B178F078814206D138
:108FD000401CC0B2F070022801D10020F0700006E1
:108FE0000749800D0F500120064900050860F8BDB3
:108FF000401101400011014068200020001501408F
:109000008420002000E200E010B505F059FD10BDFD
:10901000F8B51D4C6068002801D08047F8BD207865
:109020000028FBD02069002807D00026E06800282F
:1090300005D00025002E04D00FE00126F6E701251B
:10904000F8E7684651DF052802D0002805D101E085
:10905000012602E0216900988847002D0ED1608822
:1090600069460880A06861DF052802D0002805D184
:1090700001E0012502E0E168A0688847002EE0D009
:10908000002DD7D0F8BD00002420002030B42148A6
:10909000214A018CCBB20121012B17D1848C2407EA
:1090A00014D1048D2406250F03D1858D2D062D0F97
:1090B0000FD0240F012C03D1858D2D062D0F08D044
:1090C000032C03D1848D2406240F02D0012B07D05A
:1090D00014E0124B53600123114CDB03A36102E047
:1090E000838C1B070AD1038D1B061B0F042B05D194
:1090F000808D0006000F01D10A48816091610A4805
:10910000002242608205916041680029FCD030BC99
:1091100070470000C00F00F000050040DFFF07C0EF
:10912000006C004000060040000100400C4841680F
:109130000A060C4904D5CA69002A01D0012106E0BB
:10914000406840070AD58868002807D000210648F3
:109150000068002802D0044A926810477047000057
:1091600000230040002100409820002070B51446E4
:1091700006460D460A4615A1002001F0E4FC174AF8
:10918000B000002D05D0012D0CD0032D19D00420E6
:1091900070BD1058002810D00168096B884700285E
:1091A0000DD170BD1058002807D00168496B884761
:1091B000002804D02060002070BD032070BD012075
:1091C00070BD01202060002070BD00006469736BD9
:1091D0005F696F63746C282564290A0010200020E1
:1091E000F8B50D46064600901F46144611A1002012
:1091F00001F0A9FCE0190090A04218D9B60022465F
:1092000018A1002001F09FFC1C4822468059002331
:109210000168CF6A2946B847002801D00420F8BD6C
:10922000FF35FF350098641C0235A042E7D80020C6
:10923000F8BD00006469736B5F77726974652873A9
:109240006563746F722025642C20636F756E7420C3
:10925000256429206F6E20647276205B25645D0A88
:1092600000000000206469736B5F77726974652881
:10927000736563746F72202564290A001020002032
:1092800070B53648032104F065FD354805F08EFEC3
:10929000324D00202856401C04D12C22314932483E
:1092A00005F0F6F8686900686968084204D0002093
:1092B0002856401C07D00BE02CA12DA0FDF78CFBFD
:1092C000040040D145E02C222649274805F0E0F86B
:1092D00068690068696808422FD03F263606284C26
:1092E00000202056401C04D124221E491E4805F0AF
:1092F000CFF8E16860680860304605F057FE204C02
:1093000000202056401C04D124221649164805F09E
:10931000BFF8216960680860304605F047FE00200C
:109320002856401C04D12C220E490F4805F0B0F8F5
:109330006869006869680842D1D10CA10CA0FDF7EA
:109340004BFB040005D00FA1FDF770F82046FDF798
:109350007BFB0248012104F0FDFC70BD5827002072
:10936000CDCCCC3D50FD0100A8A401007700000049
:109370002F73642F7364746573742E6373760000A7
:10938000B427002057652772652077726974696E6B
:109390006720746F20616E205344206361726421E2
:1093A00020534420636172642063616E206E6F7786
:1093B000206265207573656400000000F0B5544CB0
:1093C0008BB02078002878D001F0D2F8514D0020E1
:1093D0002856401C04D124224F49504805F058F823
:1093E000E96868680860FD20800505F0DFFD494DEB
:1093F00000202856401C04D124224749474805F044
:1094000047F829696868086045A104A8A269FDF7C2
:1094100019F849A104A8FDF7DFFA03902078002885
:1094200068D0464D464E474F474B484A4849494801
:1094300000970196029503F080F9474802F02FFF4C
:10944000E1694218226245A10398FCF7EFFFE0783A
:1094500000281FD0002000900223414A902141485B
:1094600002F05EFE3E4801784078090208180009C3
:10947000FDF7F3FD0322D243FDF7F2FDFDF786FD74
:109480006062FDF71DFE02460B4637A10398FCF70C
:10949000CDFF03E036A10398FCF7C8FF60780028F1
:1094A0000CD00C20205E00900A230822E35EA25E0E
:1094B00030A10398FCF7BAFF04E021E030A1039843
:1094C000FCF7B4FFA07800281CD01220205E00908A
:1094D00010230E22E35EA25E26A10398FCF7A6FFEE
:1094E0002B4805F063FD2BA10398FCF79FFF207824
:1094F000002899D10398FDF7A7FAA069401CA06144
:109500000BB0F0BD1EA10398FCF790FFE8E7000048
:1095100038200020B427002050FD0100A8A401003D
:109520002F73642F25642D73657373696F6E2D64BB
:109530006174612E63737600770000004A2000207A
:109540004820002046200020442000204220002007
:1095500040200020842800207027002025753B0033
:109560003D200020A0270020252E32664300000069
:109570004E614E003B25643B25643B2564000000A2
:109580003B4E614E3B4E614E3B4E614E0000000033
:109590008FC2753C0A000000F0B5036816461A78C1
:1095A0000025303A89B0092A02D85C783A2C01D0DB
:1095B0000D6007E09B1C03600D60002A02D00B20A9
:1095C00009B0F0BDED480468002C12D00C60207882
:1095D000002804D0607800F0E1F9C1070CD0002029
:1095E0002070607000F0A0FFC1070CD0032009B00C
:1095F000F0BD0C2009B0F0BD002E01D0400706D40C
:10960000002009B0F0BD002E04D0400702D50A208A
:1096100009B0F0BD214600276078303101233A4679
:10962000059101F0D1FB002854D1E51DFF35FA3535
:10963000E98DD34881427DD126466336311D0A78B3
:10964000D04B10464A78120210438A78C978120427
:109650001043090608430102F01E0290807901437D
:109660000802984264D020468330014601900A786F
:1096700010464A78120210438A78C97812041043BF
:10968000090608430102204680300090807801439B
:109690000902184681424BD0284612380179002928
:1096A00048D0411C08228A181378007A194653784A
:1096B0001B0219439378D2781B04194312061143F5
:1096C0000F0207433A4660780123059901F07CFBBD
:1096D000002802D0012009B0F0BDE98DA8488142E0
:1096E00028D13279F17910467279090612021043B5
:1096F000B2791204104308430299000289790843A1
:10970000A0490002884213D00198024613781846F7
:1097100053781B0218439378D2781B04184312061F
:109720001043009A0002927810430002884201D14F
:10973000204600E086E02330417E027E080210438E
:10974000C11FFF39FA397DD1204640300290C088D0
:10975000002812D120464130142141180A781046C1
:109760004A78120210438A78C97812041043090615
:10977000084302990002097D0843E06102990890BC
:109780000978E170012901D0022969D1484301908B
:10979000204620300790417FA170002960D04A1EEA
:1097A00011425DD1213006904278037810021843AF
:1097B00020810490000753D120464330437802783B
:1097C0001802104311D106981022821813781846F7
:1097D00053781B0218439378D2781B04184312065F
:1097E0001043029A0002127C1043E28F0092002A7A
:1097F00036D0019BD318049A12099A18039290420A
:109800002ED3801AFDF7BCFA002829D05E49012624
:10981000884200D302265D49884200D30326801C7B
:10982000A06103997918A162009979182162032E29
:1098300019D0049A002A13D0019A89186162022E65
:1098400029D000E00CE041004118C0074908C00FD2
:109850000818FF30FF3001300899400A81421CD2BD
:109860000D2009B0F0BD04990029F9D106991C22F8
:109870008A181378194653781B0219439378D278C3
:109880001B041943120611430A020299097F0A4375
:1098900080006262DDE74000DBE70020C04320611A
:1098A0000020E060032E5DD1607102980123008CDE
:1098B000C21962616078059901F086FA002851D1D9
:1098C000E98D2F4881424DD1204621301021411889
:1098D0000A7810464A78120210438A78C97812042E
:1098E00010430906084307990002097C08432849E8
:1098F000884237D1E01DFF30FB3014214218137825
:10990000194653781B0219439378D2781B041943E4
:10991000120611432A7D090211431E4A914221D1A8
:109920001C2142181378194653781B021943937867
:10993000D2781B041943120611432A7F09021143EE
:10994000E160182141180A7810464A781202104343
:109950008A78C9781204104309060843297E000258
:10996000084320610C4926700888401C0880E0806C
:109970000020E062207109B0F0BD00000C20002042
:1099800055AA000000464154F60F0000F6FF000003
:1099900052526141727241610820002010B50446A4
:1099A000024606A1002001F0CEF80B48A100405865
:1099B0000168496A8847C0B210BD00006469736BD2
:1099C0005F737461747573206F6E20647276205BB0
:1099D00025645D0A0000000010200020F3B583B06C
:1099E000049800782F2801D05C2802D10498401CEC
:1099F000049003980024846004980078202807D2FB
:109A00000021039800F0EFFE03994C6105B0F0BD12
:109A1000049D00E06D1C28782F28FBD05C28F9D02D
:109A200003980024C6692746E85D7F1C20281CD3C4
:109A30002F281ED05C281CD0FF2C08D2012104F056
:109A40007DF8002803D080280BD27FA203E00620F7
:109A500005B0F0BD521C1178002902D08142F9D125
:109A6000F5E761007052641CDEE7E81904270490F2
:109A700002E0E81900270490002CE8D0600080196B
:109A80004038C08F20280ED02E280CD0002CDED0DD
:109A900000206100705203980B228069202100F0A1
:109AA0006CFF002503E0641EE8D1D0E76D1C680060
:109AB000305A2028FAD02E28F8D0002D03D00320C9
:109AC000074300E0641E002C05D060008019403878
:109AD000C08F2E28F6D1002000900190082002901F
:109AE0006800305A6D1C002822D0202803D02E2870
:109AF00004D1A54202D003200743F1E7029A00995E
:109B0000914201D2A54219D10B2A0FD0A54201D012
:109B100003200743A5420BD8082000900B20029099
:109B2000019825468006000E0190D9E703200743DF
:109B3000039880690178E52939D03AE080280CD370
:109B4000002103F0FBFF002809D0424908188038A3
:109B5000007802210F4300280AD03FA103E0022130
:109B60000F4305E0491C0A78002A05D08242F9D14A
:109B70005F2003210F4312E001464139192904D81F
:109B8000019902221143019109E001466139192925
:109B900005D8019901221143203880B2019103991F
:109BA0008A69009950540098401C009098E705215C
:109BB000017002980828019802D18006000E0190D9
:109BC0000007800F032803D00199C943890701D1F9
:109BD00002210F43B9070AD401998907890F012986
:109BE00001D110210F43012801D108200743039818
:109BF0008069C772039800F0ABFF03990028896958
:109C0000C97A07D0042800D022E74907FCD40520F0
:109C100005B0F0BD4907FBD403984069C17AC90675
:109C2000F5D50399837E0A68C17E1278090219432B
:109C3000032A05D1427D037D10021843000401432D
:109C400003988160E4E60000222A3A3C3E3F7C7F94
:109C500000000000D9F601002B2C3B3D5B5D0000AD
:109C6000F8B5C66A0F460446BE422FD02046217979
:109C70003030009000291CD06078012332460099D2
:109C8000FFF7AEFA00281ED12071E169206A401862
:109C9000B0420ED9E578012D0BD9E0690123861970
:109CA000607832460099FFF79BFA6D1EEDB2012DE8
:109CB000F3D8002F0AD0607801233A46009901F0CA
:109CC00083F8002801D00120F8BDE7620020F8BD2C
:109CD000F0B5054602888D488D4F0024016883B099
:109CE000192A7DD047DC102A04D0112A44D0132A27
:109CF00041D17FE0AA880092C80710D1834803F0C1
:109D000048F800280BD08348002144608460C46078
:109D10000760C943046181827C48C046C0467D48D3
:109D2000009902F075FE28460E3001907748AE1D6E
:109D30000078C00710D1754803F02BF800280BD02D
:109D40007448002144608460C4600760C9430461B2
:109D500081826E48C046C04632786E499446721C75
:109D60004E680227019B00983E434E60CE68002E4D
:109D700001D06146B0478CE0AA880092C80710D194
:109D8000624803F006F800280BD0624800214460C6
:109D90008460C4600760C943046181825B48C04637
:109DA000C0465C485C4902F033FE5848AE79007802
:109DB000C00710D1554802F0ECFF00280BD05548E1
:109DC000002144608460C4600760C94304618182EB
:109DD0004E48C046C0464F483146009A022300E034
:109DE00038E046689E4346600369002B51D0104618
:109DF00098474EE000941E206A46019410809078A7
:109E000001221043E1221040DF220C3010406A464C
:109E100090700720D07010201071C80710D13B48F7
:109E200002F0B7FF00280BD03A480021446084605C
:109E3000C4600760C943046181823448C046C0469B
:109E4000344802F0E3FD6A4600217FDF0004000C85
:109E500059D11EE0A87900281BD1C80710D12B4882
:109E600002F097FF00280BD02A480021446084604C
:109E7000C4600760C943046181822448C046C0466B
:109E8000244841684908490041608068002800D0A2
:109E9000804722480078C00731D1204802F079FF7E
:109EA00000282CD01E4E1F4934717471B460346187
:109EB0007461B461F461F1601B4830603046602128
:109EC0002030FCF703FF3046C0218030FCF7FEFE57
:109ED0003046FF3060214130FCF7F8FEFF20A13012
:109EE00084553046FF303021A330FCF7EDFE30467C
:109EF0000E4A0F49FCF7CEFD0848C046C046084848
:109F0000294601F05EFE03B0F0BD0000782100207C
:109F10007CFB0100E42E0020FFFF000074210020E4
:109F2000102D00206CFB010034FB010000600100DB
:109F300005BE0100F8B50F00064605D000F09CFCF8
:109F4000022809D20120F8BDF468002C02D0B069C3
:109F5000A04205D8012403E0B1698142F3D83C4610
:109F60002546B0696D1CA84202D80225022C0BD3ED
:109F70002946304600F080FC002807D0411CE2D082
:109F80000128E0D0A542ECD10020F8BD104A2946B6
:109F9000304600F045FD002808D1002F0BD02A469E
:109FA0003946304600F03CFD002804D001280BD093
:109FB00001252846F8BDF5603069411CF9D0401EE6
:109FC000306101207071F4E70025ED43F1E70000F6
:109FD000FFFFFF0FF1B588B008980C22806903904D
:109FE00008980399C0690490684600F0B1FC68467F
:109FF000C07AC0075AD003990020C872089901247A
:10A00000C861039D694626460B222846049F00F03E
:10A010009FFC3446052E09D97008F1034018398891
:10A02000401886B27888BF1C0028F5D1072206ABFD
:10A030003007000F3030392800D9C01D9854521E07
:10A040003609F5D17E209854002100E0491C914248
:10A0500002D26E5C202EF9D1082A01D2521C00E0F7
:10A0600020206854491C082910D20820401A0E46A6
:10A0700000280BDDA919082A02D29D5C521C00E0C1
:10A0800020250D70401E491C0028F4D1089800F0CE
:10A090005FFD002810D0642C13D0042812D168462C
:10A0A000C17A0398C17208980499C1616846C07A60
:10A0B000800716D5002009E0641CA4B2642CA0D34C
:10A0C00000D1072009B0F0BD401C80B2049A4100C5
:10A0D000515A0029F8D10D211930FCF751FE86B2F2
:10A0E00000E001260021089800F07DFB0028E9D15E
:10A0F00000252F46089801690068FFF7B1FD0400AC
:10A1000072D1089840690078E52809D0002807D066
:10A1100000250121089800F0CFFD0400EAD097E067
:10A12000002D01D10898C7886D1CADB2B542F0D1A1
:10A13000012E6FD93946089800F055FB040053D121
:10A140000898806900F0ECFC761E0590B0B204908F
:10A15000089801690068FFF783FD040078D108982A
:10A160003D4DC0698646089842690498571CC1B2A3
:10A170000391059850730F20D072002010739076D1
:10A18000D07603990D20491E41434B007046C05ABA
:10A190002B78491CD054030A2C780028E35500D1B1
:10A1A0002E4801230D26F51A1C46AC462B4DA8421D
:10A1B00003D048007546285A491C274DEE5C90553F
:10A1C000060AED5C0028EE5500D124485B1C641C97
:10A1D000A445EBDA214B984207D049007046405A1B
:10A1E000002802D0039804E032E00398402108439D
:10A1F00003901070089901200968087100210898DF
:10A2000000F05AFD040023D10498401E0004000C05
:10A2100004909DD1089801690068FFF721FD0400B2
:10A2200016D10898202245690021284600F0A5FB98
:10A2300008980B228169284600F08AFB08981821AB
:10A240008069C07A0840287308990120096808715C
:10A25000204609B0F0BD0000CCF60100FFFF000071
:10A26000F8B50E460746022915D3B869B04212D98F
:10A2700000253146384600F0FFFA04001AD0012CC0
:10A2800009D0601C09D000223146384600F0C8FBD6
:10A2900005000FD103E002250CE001250AE0386932
:10A2A000411C03D0401C386101207871B8692646F2
:10A2B000B042DED82846F8BD84B0002202922821A0
:10A2C000684603920181FF21913141818281C181E0
:10A2D000501C0107090F10316846017005220AA1C0
:10A2E0007CDF0004000C0CD10120400278DF000468
:10A2F000000C06D102A87ADF0004000C01D177DF40
:10A3000080B204B0704700006E52463578000000FD
:10A31000F0B5624C0746A06A83B000287ED030308A
:10A32000808B3988884279D1F8885D4D0090002073
:10A330002856401C04D124225A495BA004F0A8F8F6
:10A34000E968686808605E4804F030FE544D0020FB
:10A350002856401C04D12422524953A004F098F8F6
:10A36000296968680860BE6856483178017071785C
:10A37000417055A1FCF7ACFC0125002858D053A131
:10A380003046FCF7A5FC002839D052A13046FCF736
:10A390009FFC00286ED051A13046FCF799FC0028A4
:10A3A0006AD050A13046FCF793FC002867D04FA13B
:10A3B0003046FCF78DFC002863D04EA13046FCF7F8
:10A3C00087FC002860D04DA13046FCF781FC0028B6
:10A3D0005CD04CA13046FCF77BFC002859D04BA147
:10A3E0003046FCF775FC002855D04AA13046FCF7F2
:10A3F0006FFC002803D036A13046FCF769FCA06A48
:10A400005C30868BB86802900098019042480068E2
:10A410000168896888470021009100E006E0016832
:10A42000019B8F683146029AB847257103B0F0BD91
:10A4300002203A490522C3B2F35C4B70401CC3B200
:10A44000F35C8B70401C891C521EF4D134480021EF
:10A450000278401C303A0A2A07D20A235943891845
:10A460000278401C303A0A2AF7D32E48E16101F005
:10A470000BFFC4E72570C2E700202070BFE76570BE
:10A48000BDE700206070BAE7A570B8E70020A070B3
:10A49000B5E7E570B3E70020E070B0E738200020B2
:10A4A000B427002050FD01006F626A2D3E70696E76
:10A4B00020213D202850696E4E616D65294E430074
:10A4C000CDCC4C3E7C270020545300005453646490
:10A4D000000000004C447374617274004C44737447
:10A4E0006F700000414461616E0000004144756975
:10A4F00074000000474461616E00000047447569C4
:10A5000074000000544461616E0000005444756999
:10A5100074000000485A0000682900208F2700209E
:10A52000902700207027002010B50446024606A19F
:10A53000002000F008FB0C48A10040580168096A9F
:10A540008847C0B210BD00006469736B5F696E69B3
:10A550007469616C697A65206F6E20647276205B25
:10A5600025645D0A000000001020002070470000F4
:10A5700030B51C4C87B01CA16846A269FBF762FF8E
:10A5800020A16846FCF728FA05461FA1FBF74EFFFD
:10A59000E078002804D028A12846FBF747FF03E015
:10A5A0002DA12846FBF742FF6078002804D032A195
:10A5B0002846FBF73BFF03E036A12846FBF736FFB2
:10A5C000A078002804D03AA12846FBF72FFF03E02B
:10A5D0003DA12846FBF72AFF2846FCF735FA07B0CD
:10A5E00030BD0000382000202F73642F25642D73A8
:10A5F000657373696F6E2D636F6E6669672E637323
:10A60000760000007700000053656520776861746C
:10A610002073656E736F72732061726520656E6161
:10A62000626C656420696E20746869732073657359
:10A6300073696F6E0D0A000054656D706572617408
:10A640007572652073656E736F72203D205452558C
:10A65000453B0D0A0000000054656D706572617421
:10A660007572652073656E736F72203D2046414C94
:10A6700053453B0D0A000000416363656C65726FD2
:10A680002073656E736F72203D20545255453B0D0B
:10A690000A000000416363656C65726F2073656E2C
:10A6A000736F72203D2046414C53453B0D0A00001C
:10A6B0004779726F2073656E736F72203D2054521C
:10A6C00055453B0D0A0000004779726F2073656E97
:10A6D000736F72203D2046414C53453B0D0A0000EC
:10A6E00010B5134C20680168896888470168C968FB
:10A6F000884700281BD120466030017800290ED001
:10A700000021017020680168496888470168224675
:10A710008B683832214610319847002807D12068CD
:10A720000168496888470168CA68211D904710BDC3
:10A7300068290020004870471C20002010B50846FA
:10A74000114602F0C7FD10BDF8B504460021FFF721
:10A7500087FA050045D1207803283AD1607900288E
:10A7600037D00026204601223030520231460746BB
:10A77000E66200F002F91120400155212018817392
:10A78000AA21C173204652212030017441746121F5
:10A7900081744122C274FF307223E1300375437526
:10A7A0008275C175216901760A0A42760A0C8276A1
:10A7B000090EC176E16801770A0A42770A0C8277AE
:10A7C000090EC1776078012339466269FEF708FDFA
:10A7D0006671002260781146FEF7C8FC002800D0A0
:10A7E00001252846F8BD70B50D46C1808168044634
:10A7F00001291BD0206882698A4217D9002905D116
:10A800000278032A14D1416A002911D08078060108
:10A81000B54219D3206800F02FF80146401C0DD036
:10A82000022903D320688069884209D8022070BDBC
:10A83000E1600189A942F9D9406A12E0012070BDA6
:10A84000A81B85B2B542E5D2E1602068891E826905
:10A85000921E8A4201D8002003E08278806A4A432F
:10A8600010182909401820612807C00D21683030D0
:10A8700008186061002070BDF8B50C460546022935
:10A8800002D3A869A04201D80120F8BD2878012888
:10A8900004D0022828D003283FD136E060080619EA
:10A8A000286A710A41182846FFF7DAF9002834D1DE
:10A8B000F005C00D40192030077C761C286A710A0B
:10A8C00041182846FFF7CCF9002826D1F005C00D25
:10A8D00040192030007C00023843E10701D0000914
:10A8E000F8BD0005000DF8BD286A210A4118284668
:10A8F000FFF7B6F9002810D12006C00D40193030FE
:10A900004178027808021043F8BD286AE10941182D
:10A910002846FFF7A5F9002802D00020C043F8BD63
:10A920006006C00D4019014631310A4613783030B7
:10A930001946537800781B0219439378D2781B0488
:10A940001943120611430902014308010009F8BD29
:10A95000002A11DD401E491ED30703D04B784370F7
:10A96000401C491C521007D04B7843708B78837081
:10A97000801C891C521EF7D1704710B4002A0DDDCF
:10A98000D407401ECBB2002C01D04370401C5110A4
:10A9900004D043708370801C491EFAD110BC7047EC
:10A9A00070B51A4801F09AFF194D284604F0FEFAD6
:10A9B000164801F005FF284604F0F8FA134801F0A4
:10A9C0004FFF002820D1134C00202056401C04D1FA
:10A9D00024221149114803F05BFDE16860680860BA
:10A9E000284604F0E3FA0B4C00202056401C04D10A
:10A9F00024220949094803F04BFD21696068086079
:10AA0000284604F0D3FADEE770BD00008428002059
:10AA1000CDCC4C3EB427002050FD0100A8A401007D
:10AA2000F8B516460D460446022902D3A069A8428D
:10AA300001D80220F8BD2078012807D0022839D09B
:10AA4000032847D0022001212171F8BD6808471969
:10AA5000206A790A41182046FFF702F90028F2D14E
:10AA6000F805C00D00193030E90705D00178090755
:10AA7000090F3201114300E03146017001202071BD
:10AA80007F1C206A790A41182046FFF7E9F8002860
:10AA9000D9D1F905C90D09193031EA0702D03205BB
:10AAA000120E05E00A783305120912011B0F1A4332
:10AAB0000A70C8E7206A290A41182046FFF7D0F833
:10AAC0000028C0D12906C90D091930310E70320A8B
:10AAD0004A70B8E7206AE90941182046FFF7C0F834
:10AAE0000028B0D16906C90D09190A46313213464A
:10AAF0001D7830312A465D782D022A439D78DB7817
:10AB00002D042A431B061A431202120F1207324366
:10AB10000A70130A4B70130C8B70120ECA7092E7F6
:10AB2000017805224B08C90159184378C918C9B2E0
:10AB30004B08C90159188378801CC918C9B2521E24
:10AB4000F0D1084670477047704770477047000063
:10AB5000F1B584B000210498FFF745FE00281AD112
:10AB6000FF2001900090049801690068FFF778F8D1
:10AB7000002810D1049949690A78002A0AD0CB7AB2
:10AB80009B069B0EE52A03D01C0706D50F2B0AD087
:10AB9000FF2050E0042005B0F0BD0F2B03D0009A39
:10ABA000002A4DD062E00498C069002876D0530690
:10ABB00007D54B7B0193BF231A40049B0092DC888E
:10ABC0001C84009B9A4234D14B7B019A934230D132
:10ABD00002900C78BF2004400D20641E44430027DF
:10ABE0000D4601263248C05D4119487809780002B7
:10ABF0000843002E0DD002F0BDFF0646FF2C18D2F0
:10AC000060000299641C085A02F0B4FFB04210D1EF
:10AC100002E0284988420CD17F1C0D2FE2D328780E
:10AC200040060AD5002E08D002986100405A00283C
:10AC300003D0FF20C0B2009030E00098401EF9E73A
:10AC40000A780C4605235508D201AA1865785B1EC0
:10AC50005219D2B25508D201AA18A578A41C5219CB
:10AC6000D2B2002BEFD1019B9A4294D0FF220092E6
:10AC70000022049BD2431A84049A9269D37ADB0798
:10AC80000CD10A2301E05B1E06D30C781578491C11
:10AC9000521C641BF7D001E0002CE6D00021049880
:10ACA00000F00AF8002800D15DE705B0F0BD000013
:10ACB000CCF60100FFFF0000F8B50446C0880F463F
:10ACC000401C0604360C30D0206900282DD03107F6
:10ACD00071D1401C2061E168002922D0206832092E
:10ACE00083785B1E1A4266D1FFF7C6FD0546012830
:10ACF0001FD9681C41D020688169A9424DD8002F16
:10AD000013D0E168FFF716F9050010D0012D10D01F
:10AD1000681C32D000212068FEF7A2FF00282CD149
:10AD200009E020680089B04245D80420F8BD07201A
:10AD3000F8BD0220F8BD2068012252020021303007
:10AD4000FFF71BFE2168A81E8A69921E824201D865
:10AD5000002003E08A784243886A1018C86220689D
:10AD600000278078002814D921680120087100216B
:10AD70002068FEF775FF002801D00120F8BD20688B
:10AD80007F1CC16AFFB2491CC16220688078B8424A
:10AD9000EAD82068C16AC91BC162E5602068AD1E9F
:10ADA0008169891EA94201D8002003E08178806A68
:10ADB000694308182061E6803007C00D21683030F3
:10ADC000081860610020F8BDF8B50D4606460090F1
:10ADD0001F46144611A10020FFF7B5FEE0190090B0
:10ADE000A04218D9B600224617A10020FFF7ABFEFB
:10ADF0001B4822468059002301688F6A2946B847BC
:10AE0000002801D00420F8BDFF35FF350098641CF0
:10AE10000235A042E7D80020F8BD00006469736BDA
:10AE20005F7265616428736563746F722025642C9A
:10AE300020636F756E7420256429206F6E20647204
:10AE400076205B25645D0A00206469736B5F726520
:10AE5000616428736563746F72202564290A000099
:10AE60001020002010B5808F0988884206D1044840
:10AE70000068002800D0804702F02EFA10BD0000C4
:10AE80000420002070B516461D4604461422FBF728
:10AE9000B5FE25750020A661A083204670BD4C221A
:10AEA000125A0B889A420ED1CA88142A0BD810B5B0
:10AEB0000346D2B220335A7300249C738968001D64
:10AEC000FBF79CFE10BD704770B504460520C0011D
:10AED000201840680D46C117FBF789FA0246182171
:10AEE000204600F0A9F9002801D0012070BD012200
:10AEF00052022946204600F08DFB002070BD000064
:10AF0000F1B588B000220921089800F073FA0028F2
:10AF100023D1102204A9089800F0C0FA00281CD1FF
:10AF200000217E22022304AE0C460F20D510451BC3
:10AF3000755D57077F0FFD40ED07ED0FA5402943D5
:10AF4000521C5B1E641C002BF0D10523089ADB0108
:10AF5000D218002905D0012959D00020014609B096
:10AF6000F0BD01214902516000223E2135460C23EB
:10AF70001446CE10861BAE5D4F077F0FFE40F607CE
:10AF8000F60FA6403243491C5B1E641C002BF0D117
:10AF9000002194462F242A4603260F46E510451B20
:10AFA000555D63075B0FDD40ED07ED0FBD402943A5
:10AFB000641C761E7F1C002EF0D18E4600241146A4
:10AFC0005025042627460246E810101A085C6B0735
:10AFD0005B0FD840C007C00FB84004436D1C761EFD
:10AFE0007F1C002EF0D101200146A1407246921C28
:10AFF000904063465B1C43434B4300245D0A62461A
:10B0000017A1204600950194FFF7A0FD23E0012140
:10B0100051600022302110231446CD10451B755D70
:10B020004F077F0FFD40ED07ED0FA5402A43491C58
:10B030005B1E641C002BF0D101219002890245188F
:10B040000024E80D6902009101900295039412A179
:10B050002046FFF77BFD2846214609B0F0BD0000E1
:10B060000A0D5344436172640A0D635F73697A6524
:10B070003A202564200A0D63617061636974793A2E
:10B0800020256C64200A0D736563746F72733A2017
:10B09000256C6C640A0D00000A0D5344484320439C
:10B0A000617264200A0D68635F635F73697A653A51
:10B0B0002025640A0D63617061636974793A202503
:10B0C0006C6C64200A0D736563746F72733A20258B
:10B0D0006C6C640A0D000000002070470146FF30D0
:10B0E000FF300230FF31FF310231806CC96C704794
:10B0F00010B5044600F02AF802460FA10020FFF721
:10B1000025FD2046FFF7FCFEE21DFF32FA32D16436
:10B110009064012252021021204600F08DF8002890
:10B1200001D0012010BD252000010749201801F0A1
:10B1300075F8002010BD0000696E697420636172AB
:10B1400064203D2025640A0040420F00F8B5044603
:10B150002520000120183449064601F05FF89B20A5
:10B160008000251800202856401C04D124222F4995
:10B170002F4803F08DF9E968686808600025FF2111
:10B18000304601F031F86D1C102DF8DB002211461D
:10B19000204600F051F801283CD1204600F0B4F8D8
:10B1A0000126244D012802D0052822D032E027466E
:10B1B0000024322003F00CFF384600F0B7F90022DB
:10B1C0003721384600F038F8012292072921384605
:10B1D00000F032F8002803D0641CAC42E9DB19E02F
:10B1E000384600F0A3F90520C00138184660022057
:10B1F000F8BD2746002400223721384600F01CF80D
:10B2000000222921384600F017F8002804D0641CD9
:10B21000AC42F0DB0020F8BD012105204902C0014D
:10B22000381841603046F8BDA086010050FD01008D
:10B230008CB7010088130000F8B507469B208000FA
:10B240003E180020305615460C46401C04D12422DE
:10B250002A492B4803F01CF93069716801602146C6
:10B2600040200143252000013818044600F0BCFFAF
:10B270002916204600F0B8FF2914204600F0B4FF3C
:10B280002912204600F0B0FF2946204600F0ACFF0E
:10B290009521204600F0A8FF0025FF21204600F060
:10B2A000A3FF0746000611D400203056401C04D1ED
:10B2B00024221249124803F0EBF8F1687068086024
:10B2C000FF21204600F090FF3846F8BD0D486D1C68
:10B2D0008542E2DB00203056401C04D1242207497D
:10B2E000074803F0D5F8F16870680860FF21204630
:10B2F00000F07AFF0020C043F8BD000050FD0100BF
:10B300008CB7010088130000F0B505469B20800033
:10B310002C1887B0002001942056401C04D1242210
:10B320003149324803F0B4F821696068086025208B
:10B33000000128184821044600F056FF002120464D
:10B3400000F052FF0021204600F04EFF0121204670
:10B3500000F04AFFAA21204600F046FF8721204640
:10B3600000F042FF224E0025FF21204600F03CFF66
:10B370006946087200061ED4012602AFFF2120464E
:10B3800000F032FF761C7855052EF7DB019D00207A
:10B390002856401C04D124221349144803F078F89D
:10B3A000E96868680860FF21204600F01DFF6846D4
:10B3B000007A07B0F0BD6D1CB542D5DB019D0020C1
:10B3C0002856401C04D124220749084803F060F89D
:10B3D000E96868680860FF21204600F005FF00204A
:10B3E000C04307B0F0BD000050FD01008CB7010064
:10B3F000404B4C00F8B507469B2080003D180020CC
:10B40000285616460C46401C04D1242220492148C7
:10B4100003F03EF828696968016021464020014335
:10B42000252000013818044600F0DEFE31162046C3
:10B4300000F0DAFE3114204600F0D6FE311220462C
:10B4400000F0D2FE3146204600F0CEFE9521204687
:10B4500000F0CAFE104F0026FF21204600F0C4FE77
:10B46000010614D5761CBE42F6DB00202856401C8F
:10B4700004D124220649074803F00AF8E9686868FD
:10B480000860FF21204600F0AFFE0020C043F8BD59
:10B4900050FD01008CB7010088130000F8B5054687
:10B4A0009B2080002C1800200094205616460F4642
:10B4B000401C04D124221B491B4802F0E9FF2169EA
:10B4C00060680860252000012C18FF21204600F04C
:10B4D0008BFEFE28F9D10025002E07D9FF2120463A
:10B4E00000F082FE78556D1CB542F7D3FF2120464F
:10B4F00000F07AFEFF21204600F076FE009D00203D
:10B500002856401C04D124220649074802F0C0FFF7
:10B51000E96868680860FF21204600F065FE0020A9
:10B52000F8BD000050FD01008CB70100F8B50446DD
:10B530009B208000251800202856401C04D124227E
:10B540003149324802F0A4FF28696968016025206A
:10B550000001201800267A21044600F045FE002153
:10B56000204600F041FE0021204600F03DFE002173
:10B57000204600F039FE3146204600F035FE952188
:10B58000204600F031FE0027FF21204600F02CFE6F
:10B590000646000621D4FF21204600F025FEFF21AB
:10B5A000204600F021FEFF21204600F01DFEFF2175
:10B5B000204600F019FE00202856401C04D1242209
:10B5C0001149124802F064FFE96868680860FF21C9
:10B5D000204600F009FE3046F8BD0D487F1C87422A
:10B5E000D2DB00202856401C04D1242206490748FB
:10B5F00002F04EFFE96868680860FF21204600F00D
:10B60000F3FD0020C043F8BD50FD01008CB70100E0
:10B6100088130000F8B505469B2080002C180020F8
:10B620000094205616460F46401C04D124222A4975
:10B630002A4802F02DFF216960680860252000017A
:10B640002818FE21044600F0CFFD0025002E06D963
:10B65000795D204600F0C8FD6D1CB542F8D3FF218E
:10B66000204600F0C1FDFF21204600F0BDFDFF2176
:10B67000204600F0B9FDC006C00E052812D0009D7E
:10B6800000202856401C04D124221349134802F0FC
:10B69000FFFEE96868680860FF21204600F0A4FD0D
:10B6A0000120F8BDFF21204600F09EFD0028F9D0C2
:10B6B000009D00202856401C04D12422064907483A
:10B6C00002F0E6FEE96868680860FF21204600F0A5
:10B6D0008BFD0020F8BD000050FD01008CB701007B
:10B6E00070B504460520C001201840680D46C117FA
:10B6F000FAF77DFE024611212046FFF79DFD002846
:10B7000001D0012070BD0122520229462046FFF7D8
:10B71000C5FE002070BD002070470000F8B50F4640
:10B720001D461646069C079900F03CF91549016034
:10B7300000212B46C943252500912D01324639466B
:10B74000401900F07FFD9B26401BB60085190020A4
:10B7500028606860A860E860286168612146284622
:10B7600002F09CFAAD1BAC1900202056401C04D1FD
:10B770002422054905A002F08BFEE168606808609C
:10B780002846F8BD88FA010050FD01006F626A2D5D
:10B790003E70696E20213D202850696E4E616D65B6
:10B7A000294E430010B50249016000F05DF910BD5B
:10B7B00088FA01000069704770B50446001D01F069
:10B7C000D6FE05462068016A20468847284670BD97
:10B7D00010B50446022A02D0012A02D003E02069F3
:10B7E00000E0E0684118201D01F0CAFE020006D00A
:10B7F00006A10020FFF7A8F90020C04310BD08A152
:10B800000020E268FFF7A0F9E06810BD6C73656581
:10B810006B206661696C65643A2025640A0000004B
:10B820006C7365656B204F4B2C2072657475726E5E
:10B83000696E672025690A0008B56B46001D02F095
:10B8400095F8020006D004A10020FFF77DF9002042
:10B85000C04308BD009808BD665F777269746528AB
:10B8600029206661696C65643A2025640000000047
:10B87000002070470FB410B50446064889222060A6
:10B88000920003A9201DFAF729FD204610BC08BC30
:10B8900004B01847C8FA010010B500F095FB01F09C
:10B8A0000EFA10BD002070470020704770B50D469D
:10B8B000C11DFF31FFB0FA31FFB00E46A2B0096CD6
:10B8C0000091144683682A4623A10020FFF73DF922
:10B8D0002B46FFAD44352AA12846326CFAF7B2FD5B
:10B8E000A00701D5032204E0E00701D0022200E016
:10B8F0000122A00505D5600501D5082000E0102033
:10B900000243294686AD284601F014FF020008D004
:10B910001DA10020FFF719F97FB07FB0002022B0F1
:10B9200070BD200703D52846899901F029FE4520DE
:10B93000C00001F0C9F904464322D20089A9684633
:10B94000FAF7CCFC2046889B879A8699FFF792FFEE
:10B950007FB07FB022B070BD6F70656E28257329EF
:10B96000206F6E2066696C6573797374656D205BFA
:10B9700025735D2C20647276205B25645D0A0000CF
:10B9800025643A2F25730000665F6F70656E282767
:10B99000772729206661696C65643A2025640A006E
:10B9A0000020704770B50E4600F09AFB044611481F
:10B9B0002060324610A10020FFF7C7F81348002589
:10B9C0000168002905D0314611A001F0C8FD2046CC
:10B9D00070BD04600920800105512B4619A100208B
:10B9E000A268FFF7B2F821461031284601F090FE18
:10B9F000EDE70000F4FA010046415446696C6553D6
:10BA0000797374656D282573290A000010200020C1
:10BA1000436F756C646E2774206372656174652072
:10BA2000257320696E2046415446696C65537973CD
:10BA300074656D3A3A46415446696C65537973743E
:10BA4000656D0A004D6F756E74696E67205B2573B6
:10BA50005D206F6E20666673206472697665205B78
:10BA600025645D0A0000000010B504460748084937
:10BA700020600A680020A24203D10860002101F082
:10BA800047FE204600F036FB10BD0000F4FA01002E
:10BA900010200020F3B58DB004460E9801F0FAFC9A
:10BAA000079006AA07A90120A0DF002868D16946EF
:10BAB0000E98098B8183002008900E98007D002845
:10BAC00079D92746FF37A1370E990898097D814219
:10BAD00001D8002003E00E9980008969085803907E
